:020000040800F2
:10000000005000201902000815020008150200081F
:100010001502000815020008150200080000000083
:1000200000000000000000000000000015020008B1
:100030001502000800000000150200081502000863
:100040001502000815020008150200081502000834
:100050001502000815020008150200081502000824
:100060001502000815020008150200081502000814
:100070001502000815020008150200081502000804
:1000800015020008150200081502000815020008F4
:1000900015020008150200081502000815020008E4
:1000A00015020008150200081502000815020008D4
:1000B00015020008150200081502000815020008C4
:1000C00015020008150200081502000815020008B4
:1000D00015020008150200081502000815020008A4
:1000E0001502000815020008150200081502000894
:1000F0001502000815020008150200081502000884
:100100001502000815020008150200081502000873
:100110001502000815020008150200081502000863
:100120001502000815020008150200081502000853
:1001300082B00190019800F1424000F5801040012A
:1001400002B0704782B00190019800F1424000F582
:10015000801001EBC000800002B0704782B00190B7
:10016000019800F1614000F58010400102B0704735
:1001700082B00190019800F1614000F5801001EB20
:10018000C000800002B0704784B000234FF47A7141
:10019000019001E0039B01330393019B039A01FB50
:1001A00003F39342F6D804B0704700BF30B5042182
:1001B00083B01448FFF7C6FF0125034612481D60AF
:1001C000FFF7B6FF002403460D21C3E91454C3E929
:1001D00016440E48FFF7B6FF0D4A0194019B9A4260
:1001E00005D9019B01330193019B9A42F9D80094F0
:1001F000009B9A42F1D9009B01330093009B9A42E5
:10020000F9D8EAE718100240041001400C10014030
:1002100040420F00FEE700BF08B5FFF7C7FFFEE74B
:0400000508000219D4
:00000001FF
