:020000040800F2
:1000000000500020950200089102000891020008AB
:10001000910200089102000891020008000000000F
:100020000000000000000000000000009102000835
:1000300091020008000000009102000891020008EF
:100040009102000891020008910200089102000844
:100050009102000891020008910200089102000834
:100060009102000891020008910200089102000824
:100070009102000891020008910200089102000814
:100080009102000891020008910200089102000804
:1000900091020008910200089102000891020008F4
:1000A00091020008910200089102000891020008E4
:1000B00091020008910200089102000891020008D4
:1000C00091020008910200089102000891020008C4
:1000D00091020008910200089102000891020008B4
:1000E00091020008910200089102000891020008A4
:1000F0009102000891020008910200089102000894
:100100009102000891020008910200089102000883
:100110009102000891020008910200089102000873
:100120009102000891020008910200089102000863
:1001300091020008072942EA83020CD84FF00F0C05
:1001400089000368C9B28A400CFA01F123EA01016F
:100150000A43026070474FF00F0C0839890043686A
:10016000C9B28A400CFA01F123EA01010A43426054
:10017000704700BF32B10123C26803FA01F1114395
:10018000C16070470122C36802FA01F123EA01014C
:10019000C1607047C160704770B5054E451E15F8C7
:1001A000014F3046214600F0A5F8002CF7D170BD74
:1001B0000038014059B170B50446054E4518304627
:1001C00000F0A4F804F8010BAC42F8D170BD704700
:1001D0000038014080B584B06C466D46022000F0C6
:1001E00043F80E2000F040F80A2309221649174868
:1001F00000F054F8164B154E0FCB07C4238015F8AA
:10020000014B3046214600F075F8002CF7D10F4D18
:100210000DF10507284600F059F80128FAD16C467F
:10022000284600F073F804F8010BBC42F8D16E4682
:1002300016F8014B2846214600F05CF8002CF7D157
:10024000284600F04BF8E5E700080140003801407F
:100250004C0300080123034A834051690B43536157
:10026000704700BF001002400123034A8340916998
:100270000B439361704700BF001002400123034A03
:100280008340D1690B43D361704700BF0010024027
:10029000FEE700BF08B5FFF79DFFFEE770B50D460E
:1002A0001E4611460446022301222846FFF742FF5C
:1002B0000123002231462846FFF73CFF40F241323D
:1002C00042F22C03A260E36070BD00BF0068C0F37F
:1002D000401070470068C0F380107047036823F037
:1002E00020030360704700BF036843F040030360CE
:1002F000704700BF416003685B06FCD5024A136883
:1003000043F04003136070470038014003689B06C8
:10031000FCD5044A40681368C0B223F02003136080
:10032000704700BF003801404FF47A72002382B05A
:1003300002FB00F00193019B984205D9019B013318
:100340000193019B8342F9D302B0704768656C6CDE
:0A0350006F20776F726C640D0A00D5
:040000050800029558
:00000001FF
