:020000040800F2
:1004000000500020750600086F0600086F060008FF
:100410006F0600086F0600086F0600080000000065
:100420000000000000000000000000006F0600084F
:100430006F060008000000006F0600086F06000845
:100440006F0600086F0600086F0600086F060008B8
:100450006F0600086F0600086F0600086F060008A8
:100460006F0600086F0600086F0600086F06000898
:100470006F0600086F0600086F0600086F06000888
:100480006F0600086F0600086F0600086F06000878
:100490006F0600086F0600086F0600086F06000868
:1004A0006F0600086F0600086F0600086F06000858
:1004B0006F0600086F0600086F0600086F06000848
:1004C0006F0600086F0600086F0600086F06000838
:1004D0006F0600086F0600086F0600086F06000828
:1004E0006F0600086F0600086F0600086F06000818
:1004F0006F0600086F0600086F0600086F06000808
:100500006F0600086F0600086F0600086F060008F7
:100510006F0600086F0600086F0600086F060008E7
:100520006F0600086F0600086F0600086F060008D7
:100530006F06000880B483B000AF094B7B607B6816
:100540001B6843F004027B681A607B681B6843F0F9
:1005500010027B681A6000BF0C37BD4680BC704734
:100560001810024080B400AF0B4B0C4A1A600A4BC3
:100570001B681A68084B1B6822F00F021A60064BB2
:100580001B681A68044B1B6842F008021A6000BF1F
:10059000BD4680BC704700BF00000020000801403D
:1005A00080B400AF0B4B0C4A1A600A4B1B681A68E8
:1005B000084B1B6822F470021A60064B1B681A680D
:1005C000044B1B6842F480121A6000BFBD4680BC19
:1005D000704700BF000000200410014080B400AF4D
:1005E000074B084A1A60064B1B681A68044B1B68C5
:1005F00042F400521A6000BFBD4680BC704700BF85
:10060000000000200C10014080B400AF074B084AE6
:100610001A60064B1B681A68044B1B6822F40052D0
:100620001A6000BFBD4680BC704700BF00000020BC
:100630000C10014080B500AF00F03AF800BF80BD5B
:1006400080B500AF00F03CF84FF47A7000F017F876
:1006500000F03CF84FF47A7000F011F800BF80BD54
:1006600080B500AFFFF7E6FFFFF7EAFFFCE780B4D5
:1006700000AFFEE780B500AFFFF7F2FFFEE780B402
:1006800085B000AF78600023FB6002E0FB680133B7
:10069000FB607B684FF47A7202FB03F31A46FB6837
:1006A0009A42F3D800BF00BF1437BD4680BC7047E4
:1006B00080B500AFFFF73EFFFFF772FF00BF80BDC0
:1006C00080B500AFFFF78AFF00BF80BD80B500AFE7
:0806D000FFF79AFF00BF80BD97
:040000050800067574
:00000001FF
