:020000040800F2
:100000000050002001020008FD010008FD01000869
:10001000FD010008FD010008FD01000800000000CE
:10002000000000000000000000000000FD010008CA
:10003000FD01000800000000FD010008FD010008AE
:10004000FD010008FD010008FD010008FD01000898
:10005000FD010008FD010008FD010008FD01000888
:10006000FD010008FD010008FD010008FD01000878
:10007000FD010008FD010008FD010008FD01000868
:10008000FD010008FD010008FD010008FD01000858
:10009000FD010008FD010008FD010008FD01000848
:1000A000FD010008FD010008FD010008FD01000838
:1000B000FD010008FD010008FD010008FD01000828
:1000C000FD010008FD010008FD010008FD01000818
:1000D000FD010008FD010008FD010008FD01000808
:1000E000FD010008FD010008FD010008FD010008F8
:1000F000FD010008FD010008FD010008FD010008E8
:10010000FD010008FD010008FD010008FD010008D7
:10011000FD010008FD010008FD010008FD010008C7
:10012000FD010008FD010008FD010008FD010008B7
:10013000FD010008024A936943F01403936170477C
:1001400000100240064B074A07491960D2F80038F0
:1001500023F00F0343F00803C2F80038704700BFD4
:10016000000000200000014000080140054B064A45
:1001700006491960536823F4700343F480135360F5
:10018000704700BF00000020001001400410014033
:10019000044B054A05491960D36843F40053D36002
:1001A000704700BF00000020001001400C1001400B
:1001B000044B054A05491960D36823F40053D36002
:1001C000704700BF00000020001001400C100140EB
:1001D00000F02CB808B500F031F8642000F014F8F5
:1001E00000F02EF8BDE80840642000F00DB800BF14
:1001F00008B5FFF7EDFFFFF7EDFFFCE7FEE700BFF7
:1002000008B5FFF7F5FFFEE74FF47A72002382B0DE
:1002100002FB00F00193019B984205D9019B013339
:100220000193019B8342F9D302B0704708B5FFF7F1
:1002300081FFBDE80840FFF799BF00BFFFF7A8BFE7
:04024000FFF7B6BF4F
:0400000508000201EC
:00000001FF
